{
  "_format": "hh-sol-artifact-1",
  "contractName": "Marketplace",
  "sourceName": "contracts/Marketplace.sol",
  "abi": [
    {
      "inputs": [],
      "stateMutability": "nonpayable",
      "type": "constructor"
    },
    {
      "anonymous": false,
      "inputs": [
        {
          "indexed": false,
          "internalType": "uint256",
          "name": "id",
          "type": "uint256"
        },
        {
          "indexed": false,
          "internalType": "string",
          "name": "name",
          "type": "string"
        },
        {
          "indexed": false,
          "internalType": "uint256",
          "name": "price",
          "type": "uint256"
        }
      ],
      "name": "ProductListed",
      "type": "event"
    },
    {
      "inputs": [
        {
          "internalType": "uint256",
          "name": "_id",
          "type": "uint256"
        }
      ],
      "name": "buyProduct",
      "outputs": [],
      "stateMutability": "payable",
      "type": "function"
    },
    {
      "inputs": [
        {
          "internalType": "string",
          "name": "_name",
          "type": "string"
        },
        {
          "internalType": "string",
          "name": "_description",
          "type": "string"
        },
        {
          "internalType": "uint256",
          "name": "_price",
          "type": "uint256"
        }
      ],
      "name": "listProduct",
      "outputs": [],
      "stateMutability": "nonpayable",
      "type": "function"
    },
    {
      "inputs": [],
      "name": "owner",
      "outputs": [
        {
          "internalType": "address",
          "name": "",
          "type": "address"
        }
      ],
      "stateMutability": "view",
      "type": "function"
    },
    {
      "inputs": [],
      "name": "productCount",
      "outputs": [
        {
          "internalType": "uint256",
          "name": "",
          "type": "uint256"
        }
      ],
      "stateMutability": "view",
      "type": "function"
    },
    {
      "inputs": [
        {
          "internalType": "uint256",
          "name": "",
          "type": "uint256"
        }
      ],
      "name": "products",
      "outputs": [
        {
          "internalType": "uint256",
          "name": "id",
          "type": "uint256"
        },
        {
          "internalType": "string",
          "name": "name",
          "type": "string"
        },
        {
          "internalType": "string",
          "name": "description",
          "type": "string"
        },
        {
          "internalType": "uint256",
          "name": "price",
          "type": "uint256"
        },
        {
          "internalType": "bool",
          "name": "isSold",
          "type": "bool"
        }
      ],
      "stateMutability": "view",
      "type": "function"
    }
  ],
  "bytecode": "0x608060405234801561001057600080fd5b50336000806101000a81548173ffffffffffffffffffffffffffffffffffffffff021916908373ffffffffffffffffffffffffffffffffffffffff1602179055506000600181905550610ab4806100686000396000f3fe60806040526004361061004a5760003560e01c80636d6b77771461004f5780637acc0b20146100785780638642269e146100b95780638da5cb5b146100d5578063e0f6ef8714610100575b600080fd5b34801561005b57600080fd5b50610076600480360381019061007191906105a4565b61012b565b005b34801561008457600080fd5b5061009f600480360381019061009a9190610623565b610237565b6040516100b09594939291906107a8565b60405180910390f35b6100d360048036038101906100ce9190610623565b61038a565b005b3480156100e157600080fd5b506100ea61045a565b6040516100f79190610732565b60405180910390f35b34801561010c57600080fd5b5061011561047e565b604051610122919061078d565b60405180910390f35b6001600081548092919061013e90610980565b91905055506040518060a001604052806001548152602001848152602001838152602001828152602001600015158152506002600060015481526020019081526020016000206000820151816000015560208201518160010190805190602001906101aa929190610484565b5060408201518160020190805190602001906101c7929190610484565b506060820151816003015560808201518160040160006101000a81548160ff0219169083151502179055509050507fcbdcc3f6f42cf1b99ff924c9594ef4fb7c11f0fd1414787e2dd77eec0d351ea3600154848360405161022a93929190610809565b60405180910390a1505050565b60026020528060005260406000206000915090508060000154908060010180546102609061094e565b80601f016020809104026020016040519081016040528092919081815260200182805461028c9061094e565b80156102d95780601f106102ae576101008083540402835291602001916102d9565b820191906000526020600020905b8154815290600101906020018083116102bc57829003601f168201915b5050505050908060020180546102ee9061094e565b80601f016020809104026020016040519081016040528092919081815260200182805461031a9061094e565b80156103675780601f1061033c57610100808354040283529160200191610367565b820191906000526020600020905b81548152906001019060200180831161034a57829003601f168201915b5050505050908060030154908060040160009054906101000a900460ff16905085565b6000600260008381526020019081526020016000209050806003015434146103e7576040517f08c379a00000000000000000000000000000000000000000000000000000000081526004016103de9061074d565b60405180910390fd5b8060040160009054906101000a900460ff1615610439576040517f08c379a00000000000000000000000000000000000000000000000000000000081526004016104309061076d565b60405180910390fd5b60018160040160006101000a81548160ff0219169083151502179055505050565b60008054906101000a900473ffffffffffffffffffffffffffffffffffffffff1681565b60015481565b8280546104909061094e565b90600052602060002090601f0160209004810192826104b257600085556104f9565b82601f106104cb57805160ff19168380011785556104f9565b828001600101855582156104f9579182015b828111156104f85782518255916020019190600101906104dd565b5b509050610506919061050a565b5090565b5b8082111561052357600081600090555060010161050b565b5090565b600061053a61053584610878565b610847565b90508281526020810184848401111561055257600080fd5b61055d84828561090c565b509392505050565b600082601f83011261057657600080fd5b8135610586848260208601610527565b91505092915050565b60008135905061059e81610a67565b92915050565b6000806000606084860312156105b957600080fd5b600084013567ffffffffffffffff8111156105d357600080fd5b6105df86828701610565565b935050602084013567ffffffffffffffff8111156105fc57600080fd5b61060886828701610565565b92505060406106198682870161058f565b9150509250925092565b60006020828403121561063557600080fd5b60006106438482850161058f565b91505092915050565b610655816108c4565b82525050565b610664816108d6565b82525050565b6000610675826108a8565b61067f81856108b3565b935061068f81856020860161091b565b61069881610a56565b840191505092915050565b60006106b06015836108b3565b91507f496e636f72726563742076616c75652073656e742e00000000000000000000006000830152602082019050919050565b60006106f06015836108b3565b91507f50726f6475637420616c726561647920736f6c642e00000000000000000000006000830152602082019050919050565b61072c81610902565b82525050565b6000602082019050610747600083018461064c565b92915050565b60006020820190508181036000830152610766816106a3565b9050919050565b60006020820190508181036000830152610786816106e3565b9050919050565b60006020820190506107a26000830184610723565b92915050565b600060a0820190506107bd6000830188610723565b81810360208301526107cf818761066a565b905081810360408301526107e3818661066a565b90506107f26060830185610723565b6107ff608083018461065b565b9695505050505050565b600060608201905061081e6000830186610723565b8181036020830152610830818561066a565b905061083f6040830184610723565b949350505050565b6000604051905081810181811067ffffffffffffffff8211171561086e5761086d610a27565b5b8060405250919050565b600067ffffffffffffffff82111561089357610892610a27565b5b601f19601f8301169050602081019050919050565b600081519050919050565b600082825260208201905092915050565b60006108cf826108e2565b9050919050565b60008115159050919050565b600073ffffffffffffffffffffffffffffffffffffffff82169050919050565b6000819050919050565b82818337600083830152505050565b60005b8381101561093957808201518184015260208101905061091e565b83811115610948576000848401525b50505050565b6000600282049050600182168061096657607f821691505b6020821081141561097a576109796109f8565b5b50919050565b600061098b82610902565b91507fffffffffffffffffffffffffffffffffffffffffffffffffffffffffffffffff8214156109be576109bd6109c9565b5b600182019050919050565b7f4e487b7100000000000000000000000000000000000000000000000000000000600052601160045260246000fd5b7f4e487b7100000000000000000000000000000000000000000000000000000000600052602260045260246000fd5b7f4e487b7100000000000000000000000000000000000000000000000000000000600052604160045260246000fd5b6000601f19601f8301169050919050565b610a7081610902565b8114610a7b57600080fd5b5056fea2646970667358221220b4bb84b5d695115071f9abfdeb0f79fc8bcb7495e24aaa1a7f4139a93e42f7a364736f6c63430008000033",
  "linkReferences": {},
  "deployedLinkReferences": {}
}